:100000000C945D000C9485000C9485000C94850084
:100010000C9485000C9485000C9485000C9485004C
:100020000C9485000C9485000C9485000C9485003C
:100030000C9485000C9485000C9485000C9485002C
:100040000C947C020C9485000C944A020C942402BB
:100050000C9485000C9485000C9485000C9485000C
:100060000C9485000C94850000000008000201003B
:100070000003040700000000000000000000000072
:10008000250028002B0000000000240027002A0083
:10009000040404040404040402020202020203032E
:1000A0000303030301020408102040800102040836
:1000B0001020010204081020480411241FBECFEFB5
:1000C000D8E0DEBFCDBF11E0A0E0B1E0EEE3F9E0A3
:1000D00002C005900D92A631B107D9F721E0A6E143
:1000E000B1E001C01D92AE3BB207E1F710E0CDE5F3
:1000F000D0E004C02197FE010E949704CC35D107BF
:10010000C9F70E94C6020C949D040C94000090E074
:10011000FC01EC55FF4F249180579F4FFC018491C7
:10012000882399F090E0880F991FFC01EA57FF4F50
:10013000A591B491FC01E458FF4F859194918FB73C
:10014000F894EC91E22BEC938FBF0895AF92BF929D
:10015000CF92DF92EF92FF920F931F93CF93DF9393
:100160006C017B018B01040F151FEB015E01AE18C2
:10017000BF08C017D10759F06991D601ED91FC91E4
:100180000190F081E02DC6010995892B79F7C50111
:10019000DF91CF911F910F91FF90EF90DF90CF9063
:1001A000BF90AF900895FC01538D448D252F30E012
:1001B000842F90E0821B930B541710F0CF96089574
:1001C00001970895FC01918D828D981761F0A28DA1
:1001D000AE0FBF2FB11D5D968C91928D9F5F9F7367
:1001E000928F90E008958FEF9FEF0895FC01918D1D
:1001F000828D981731F0828DE80FF11D858D90E08A
:1002000008958FEF9FEF0895FC01918D228D892F26
:1002100090E0805C9F4F821B91098F73992708950E
:100220008FE191E00E94040121E0892B09F420E094
:10023000822F089580E090E0892B29F00E94100120
:1002400081110C9400000895FC01A48DA80FB92F12
:10025000B11DA35ABF4F2C91848D90E001968F73EE
:100260009927848FA689B7892C93A089B1898C910D
:10027000837080648C93938D848D981306C002885C
:10028000F389E02D80818F7D80830895EF92FF9226
:100290000F931F93CF93DF93EC0181E0888F9B8DA9
:1002A0008C8D98131AC0E889F989808185FF15C063
:1002B0009FB7F894EE89FF896083E889F989808186
:1002C0008370806480839FBF81E090E0DF91CF9155
:1002D0001F910F91FF90EF900895F62E0B8D10E077
:1002E0000F5F1F4F0F731127E02E8C8D8E110CC0E6
:1002F0000FB607FCFACFE889F989808185FFF5CF31
:10030000CE010E942401F1CFEB8DEC0FFD2FF11DEA
:10031000E35AFF4FF0829FB7F8940B8FEA89FB896D
:1003200080818062CFCFCF93DF93EC01888D8823CB
:10033000B9F0AA89BB89E889F9898C9185FD03C048
:10034000808186FD0DC00FB607FCF7CF8C9185FF2D
:10035000F2CF808185FFEDCFCE010E942401E9CF4D
:10036000DF91CF91089590E0FC01E859FF4F24916F
:10037000FC01EC55FF4F3491FC01E057FF4FE49135
:10038000EE23C9F0222339F0233001F1A8F4213003
:1003900019F1223029F1F0E0EE0FFF1FE458FF4F72
:1003A000A591B4918FB7F894EC91611126C0309566
:1003B0003E233C938FBF08952730A9F02830C9F021
:1003C000243049F7809180008F7D03C080918000A8
:1003D0008F7780938000DFCF84B58F7784BDDBCFAC
:1003E00084B58F7DFBCF8091B0008F778093B00074
:1003F000D2CF8091B0008F7DF9CF3E2BDACF3FB7BF
:10040000F89480911B0190911C01A0911D01B09165
:100410001E0126B5A89B05C02F3F19F00196A11D0E
:10042000B11D3FBFBA2FA92F982F8827BC01CD013E
:10043000620F711D811D911D42E0660F771F881F9D
:10044000991F4A95D1F708951F920F920FB60F92F8
:1004500011242F933F934F935F936F937F938F93C9
:100460009F93AF93BF93EF93FF938FE191E00E942F
:100470002401FF91EF91BF91AF919F918F917F9157
:100480006F915F914F913F912F910F900FBE0F9001
:100490001F9018951F920F920FB60F9211242F9351
:1004A0008F939F93EF93FF93E0912F01F091300191
:1004B0008081E0913501F091360182FD1BC0908171
:1004C000809138018F5F8F7320913901821741F03D
:1004D000E0913801F0E0E15EFE4F958F80933801A6
:1004E000FF91EF919F918F912F910F900FBE0F90E1
:1004F0001F9018958081F4CF1F920F920FB60F9224
:1005000011242F933F938F939F93AF93BF93809129
:10051000170190911801A0911901B0911A01309121
:10052000160123E0230F2D3758F50196A11DB11DAB
:10053000209316018093170190931801A09319013D
:10054000B0931A0180911B0190911C01A0911D0193
:10055000B0911E010196A11DB11D80931B019093C6
:100560001C01A0931D01B0931E01BF91AF919F91FB
:100570008F913F912F910F900FBE0F901F90189564
:1005800026E8230F0296A11DB11DD2CFCF93DF9392
:10059000CDB7DEB7A1970FB6F894DEBF0FBECDBFC3
:1005A000789484B5826084BD84B5816084BD85B54E
:1005B000826085BD85B5816085BD80916E0081605A
:1005C00080936E0010928100809181008260809300
:1005D0008100809181008160809381008091800002
:1005E0008160809380008091B10084608093B1002D
:1005F0008091B00081608093B00080917A00846027
:1006000080937A0080917A00826080937A00809152
:100610007A00816080937A0080917A00806880936C
:100620007A001092C10083E00E948700E0912F01C0
:10063000F091300182E08083E0912B01F0912C0158
:100640001082E0912D01F0912E018FEC80831092A9
:100650003701E0913301F091340186E08083E0912D
:100660003101F0913201808180618083E09131011C
:10067000F0913201808188608083E0913101F091B6
:100680003201808180688083E0913101F0913201F4
:1006900080818F7D80839AE0492E512C612C712CB2
:1006A0002BE6222E20E0322E00E010E023E42093FF
:1006B0007C0080917A00806480937A0080917A0037
:1006C00086FDFCCF9091780080917900892798274A
:1006D00089279093BD018093BC016C01092E000C09
:1006E000EE08FF0897FF76C06DE28FE191E00E946F
:1006F000460122273327A9012C193D094E095F091C
:1007000019A2CE0181967C01CA01B901A30192010F
:100710000E947504605DF70162937F012115310528
:100720004105510589F7E114F10461F001900020C1
:10073000E9F73197AF014E195F09B7018FE191E0F9
:100740000E94A60042E050E062E171E08FE191E09A
:100750000E94A600E090BC01F090BD0183E00E94E1
:100760008700E114F10409F04BC060E083E00E94CF
:10077000B3010E94FF014B015C0184EFC82EDD2410
:10078000D394E12CF12C0E94FF01681979098A09A0
:100790009B09683E734081059105A8F321E0C21AC8
:1007A000D108E108F10888EE880E83E0981EA11CAC
:1007B000B11CC114D104E104F10429F7011511059C
:1007C00009F474CF0E941001882309F46FCF0E94AE
:1007D00000006CCFA701960119A2CE0181967C0181
:1007E000CA01B901A30192010E947504605DF7017D
:1007F00062937F01211531054105510589F793CF9A
:10080000FFEFEF16F10411F461E0B0CFF101849134
:10081000833021F148F48130B9F08230D1F0F0E832
:10082000EF16F1048CF7A1CF873011F1883041F138
:100830008430A9F780918000806280938000F092DC
:100840008B00E0928A0095CF84B5806884BDE7BCB8
:1008500090CF84B5806284BDE8BC8BCF809180004E
:10086000806880938000F0928900E092880081CFB8
:100870008091B00080688093B000E092B30079CF9F
:100880008091B00080628093B000E092B40071CF9C
:10089000EFE1F1E01382128288EE93E0A0E0B0E095
:1008A00084839583A683B78384E091E091838083DA
:1008B00085EC90E09587848784EC90E09787868725
:1008C00080EC90E0918B808B81EC90E0938B828B1D
:1008D00082EC90E0958B848B86EC90E0978B868BF6
:1008E000118E128E138E148E0895A1E21A2EAA1B59
:1008F000BB1BFD010DC0AA1FBB1FEE1FFF1FA217D0
:10090000B307E407F50720F0A21BB30BE40BF50BCC
:10091000661F771F881F991F1A9469F76095709555
:10092000809590959B01AC01BD01CF010895EE0F1C
:0E093000FF1F0590F491E02D0994F894FFCF7D
:10093E00000000004601A600D30093010401E2006E
:06094E00F6000D0A000096
:00000001FF
